{
  "transactions": [
    {
      "hash": "0x4c08e586a7ddda82ed551059bdc9ed28c1ffa6da401cffb80323e6a5facd4d38",
      "transactionType": "CALL",
      "contractName": null,
      "contractAddress": "0x7b79995e5f793a07bc00c21412e50ecae098e7f9",
      "function": "approve(address,uint256)",
      "arguments": [
        "0xFf179e381516336C1b66B3Cda82Ca56996b8aB06",
        "1000000000000000"
      ],
      "transaction": {
        "from": "0x64375e6121034c78803ca55b26269239363c5c30",
        "to": "0x7b79995e5f793a07bc00c21412e50ecae098e7f9",
        "gas": "0xf85d",
        "value": "0x0",
        "input": "0x095ea7b3000000000000000000000000ff179e381516336c1b66b3cda82ca56996b8ab0600000000000000000000000000000000000000000000000000038d7ea4c68000",
        "nonce": "0x120",
        "chainId": "0xaa36a7"
      },
      "additionalContracts": [],
      "isFixedGasLimit": false
    },
    {
      "hash": "0xcedbc9f8118784e63db1acca3de62b644e9c42c57936d89286460dd4f1fc8972",
      "transactionType": "CALL",
      "contractName": null,
      "contractAddress": "0x779877a7b0d9e8603169ddbd7836e478b4624789",
      "function": "approve(address,uint256)",
      "arguments": [
        "0xFf179e381516336C1b66B3Cda82Ca56996b8aB06",
        "200000000000000000"
      ],
      "transaction": {
        "from": "0x64375e6121034c78803ca55b26269239363c5c30",
        "to": "0x779877a7b0d9e8603169ddbd7836e478b4624789",
        "gas": "0xf961",
        "value": "0x0",
        "input": "0x095ea7b3000000000000000000000000ff179e381516336c1b66b3cda82ca56996b8ab0600000000000000000000000000000000000000000000000002c68af0bb140000",
        "nonce": "0x121",
        "chainId": "0xaa36a7"
      },
      "additionalContracts": [],
      "isFixedGasLimit": false
    },
    {
      "hash": "0xd5da7de64253ae24a3111aa7aa9569d89322611b29c699e63a736114c6901077",
      "transactionType": "CALL",
      "contractName": null,
      "contractAddress": "0xff179e381516336c1b66b3cda82ca56996b8ab06",
      "function": "addLiquidity(uint256,uint256)",
      "arguments": [
        "1000000000000000",
        "200000000000000000"
      ],
      "transaction": {
        "from": "0x64375e6121034c78803ca55b26269239363c5c30",
        "to": "0xff179e381516336c1b66b3cda82ca56996b8ab06",
        "gas": "0x4675e",
        "value": "0x0",
        "input": "0x9cd441da00000000000000000000000000000000000000000000000000038d7ea4c6800000000000000000000000000000000000000000000000000002c68af0bb140000",
        "nonce": "0x122",
        "chainId": "0xaa36a7"
      },
      "additionalContracts": [],
      "isFixedGasLimit": false
    }
  ],
  "receipts": [
    {
      "status": "0x1",
      "cumulativeGasUsed": "0xb8f44a",
      "logs": [
        {
          "address": "0x7b79995e5f793a07bc00c21412e50ecae098e7f9",
          "topics": [
            "0x8c5be1e5ebec7d5bd14f71427d1e84f3dd0314c0f7b2291e5b200ac8c7c3b925",
            "0x00000000000000000000000064375e6121034c78803ca55b26269239363c5c30",
            "0x000000000000000000000000ff179e381516336c1b66b3cda82ca56996b8ab06"
          ],
          "data": "0x00000000000000000000000000000000000000000000000000038d7ea4c68000",
          "blockHash": "0x1fe85c20a1162568ff6bc97113bc6f0b069afcd63e2e0af559f6a9cd5947783c",
          "blockNumber": "0x6672dd",
          "transactionHash": "0x4c08e586a7ddda82ed551059bdc9ed28c1ffa6da401cffb80323e6a5facd4d38",
          "transactionIndex": "0xe4",
          "logIndex": "0x58",
          "removed": false
        }
      ],
      "logsBloom": "0x00000000002000000000000000000000000000000000000000000004000000000000000000000000000000000000000000000000000000000000000200200000000000000000000000000000000000000000000000000000000000000000000000000020000000000000000000000000000000000000000400000000000000000000000000000000000000000000000000000000000000000000000000000000020000000000000000004000000000080000000000000000000000000000000000000002000004000000000000000000000000000000000000000000000000000010000000000000000000000000000000000000000000000000000000000000",
      "type": "0x2",
      "transactionHash": "0x4c08e586a7ddda82ed551059bdc9ed28c1ffa6da401cffb80323e6a5facd4d38",
      "transactionIndex": "0xe4",
      "blockHash": "0x1fe85c20a1162568ff6bc97113bc6f0b069afcd63e2e0af559f6a9cd5947783c",
      "blockNumber": "0x6672dd",
      "gasUsed": "0xb3d0",
      "effectiveGasPrice": "0x5f4f4ef4e",
      "from": "0x64375e6121034c78803ca55b26269239363c5c30",
      "to": "0x7b79995e5f793a07bc00c21412e50ecae098e7f9",
      "contractAddress": null
    },
    {
      "status": "0x1",
      "cumulativeGasUsed": "0xb9a8d7",
      "logs": [
        {
          "address": "0x779877a7b0d9e8603169ddbd7836e478b4624789",
          "topics": [
            "0x8c5be1e5ebec7d5bd14f71427d1e84f3dd0314c0f7b2291e5b200ac8c7c3b925",
            "0x00000000000000000000000064375e6121034c78803ca55b26269239363c5c30",
            "0x000000000000000000000000ff179e381516336c1b66b3cda82ca56996b8ab06"
          ],
          "data": "0x00000000000000000000000000000000000000000000000002c68af0bb140000",
          "blockHash": "0x1fe85c20a1162568ff6bc97113bc6f0b069afcd63e2e0af559f6a9cd5947783c",
          "blockNumber": "0x6672dd",
          "transactionHash": "0xcedbc9f8118784e63db1acca3de62b644e9c42c57936d89286460dd4f1fc8972",
          "transactionIndex": "0xe5",
          "logIndex": "0x59",
          "removed": false
        }
      ],
      "logsBloom": "0x00000004002000000000000000000000000000000000000000000000000000000000000000000000000000000000000000000000000000000000000200200000000000000000000000000000000000000000000000000000000000000000000000000020000000000000000000000000000000000000000400000000000000000000000000000000000000000000800000000000000000000000000000000000020000000000000000004000000000000000000000000000000000000000000000000000000004000000000000000000000000000000000100000000000000000010000000000000000000000000000000000000000000000000000000000000",
      "type": "0x2",
      "transactionHash": "0xcedbc9f8118784e63db1acca3de62b644e9c42c57936d89286460dd4f1fc8972",
      "transactionIndex": "0xe5",
      "blockHash": "0x1fe85c20a1162568ff6bc97113bc6f0b069afcd63e2e0af559f6a9cd5947783c",
      "blockNumber": "0x6672dd",
      "gasUsed": "0xb48d",
      "effectiveGasPrice": "0x5f4f4ef4e",
      "from": "0x64375e6121034c78803ca55b26269239363c5c30",
      "to": "0x779877a7b0d9e8603169ddbd7836e478b4624789",
      "contractAddress": null
    },
    {
      "status": "0x1",
      "cumulativeGasUsed": "0xbcabb1",
      "logs": [
        {
          "address": "0x7b79995e5f793a07bc00c21412e50ecae098e7f9",
          "topics": [
            "0xddf252ad1be2c89b69c2b068fc378daa952ba7f163c4a11628f55a4df523b3ef",
            "0x00000000000000000000000064375e6121034c78803ca55b26269239363c5c30",
            "0x000000000000000000000000ff179e381516336c1b66b3cda82ca56996b8ab06"
          ],
          "data": "0x00000000000000000000000000000000000000000000000000038d7ea4c68000",
          "blockHash": "0x1fe85c20a1162568ff6bc97113bc6f0b069afcd63e2e0af559f6a9cd5947783c",
          "blockNumber": "0x6672dd",
          "transactionHash": "0xd5da7de64253ae24a3111aa7aa9569d89322611b29c699e63a736114c6901077",
          "transactionIndex": "0xe6",
          "logIndex": "0x5a",
          "removed": false
        },
        {
          "address": "0x779877a7b0d9e8603169ddbd7836e478b4624789",
          "topics": [
            "0xddf252ad1be2c89b69c2b068fc378daa952ba7f163c4a11628f55a4df523b3ef",
            "0x00000000000000000000000064375e6121034c78803ca55b26269239363c5c30",
            "0x000000000000000000000000ff179e381516336c1b66b3cda82ca56996b8ab06"
          ],
          "data": "0x00000000000000000000000000000000000000000000000002c68af0bb140000",
          "blockHash": "0x1fe85c20a1162568ff6bc97113bc6f0b069afcd63e2e0af559f6a9cd5947783c",
          "blockNumber": "0x6672dd",
          "transactionHash": "0xd5da7de64253ae24a3111aa7aa9569d89322611b29c699e63a736114c6901077",
          "transactionIndex": "0xe6",
          "logIndex": "0x5b",
          "removed": false
        },
        {
          "address": "0x779877a7b0d9e8603169ddbd7836e478b4624789",
          "topics": [
            "0x8c5be1e5ebec7d5bd14f71427d1e84f3dd0314c0f7b2291e5b200ac8c7c3b925",
            "0x00000000000000000000000064375e6121034c78803ca55b26269239363c5c30",
            "0x000000000000000000000000ff179e381516336c1b66b3cda82ca56996b8ab06"
          ],
          "data": "0x0000000000000000000000000000000000000000000000000000000000000000",
          "blockHash": "0x1fe85c20a1162568ff6bc97113bc6f0b069afcd63e2e0af559f6a9cd5947783c",
          "blockNumber": "0x6672dd",
          "transactionHash": "0xd5da7de64253ae24a3111aa7aa9569d89322611b29c699e63a736114c6901077",
          "transactionIndex": "0xe6",
          "logIndex": "0x5c",
          "removed": false
        },
        {
          "address": "0xff179e381516336c1b66b3cda82ca56996b8ab06",
          "topics": [
            "0xbeb3885786d637a474cbc287c0a44587231633a077f0bd30354d5a4b18996fce",
            "0x00000000000000000000000064375e6121034c78803ca55b26269239363c5c30"
          ],
          "data": "0x00000000000000000000000000000000000000000000000000038d7ea4c6800000000000000000000000000000000000000000000000000002c68af0bb14000000000000000000000000000000000000000000000000000000323e328a37c706",
          "blockHash": "0x1fe85c20a1162568ff6bc97113bc6f0b069afcd63e2e0af559f6a9cd5947783c",
          "blockNumber": "0x6672dd",
          "transactionHash": "0xd5da7de64253ae24a3111aa7aa9569d89322611b29c699e63a736114c6901077",
          "transactionIndex": "0xe6",
          "logIndex": "0x5d",
          "removed": false
        }
      ],
      "logsBloom": "0x00000004002000000000000000000000000000000000000000000004000000000000000000000000000000000000000000000000000000000002000200200000000000000000000800000008000000000000000000000000000000000000800000000020000000000000000000000000000000000000000400000010000000000200000000000000000000000000800000000000000000000000000000080000020000000000000000004000000000080000000000000000000000000000000000000002000004000000000000000000000000000000000100000000000000000010000000200000000000000000000000000000000000000000000000000000",
      "type": "0x2",
      "transactionHash": "0xd5da7de64253ae24a3111aa7aa9569d89322611b29c699e63a736114c6901077",
      "transactionIndex": "0xe6",
      "blockHash": "0x1fe85c20a1162568ff6bc97113bc6f0b069afcd63e2e0af559f6a9cd5947783c",
      "blockNumber": "0x6672dd",
      "gasUsed": "0x302da",
      "effectiveGasPrice": "0x5f4f4ef4e",
      "from": "0x64375e6121034c78803ca55b26269239363c5c30",
      "to": "0xff179e381516336c1b66b3cda82ca56996b8ab06",
      "contractAddress": null
    }
  ],
  "libraries": [],
  "pending": [],
  "returns": {},
  "timestamp": 1726646450,
  "chain": 11155111,
  "commit": "62fa8c3"
}