{
  "transactions": [
    {
      "hash": "0x9c4a06fb3baf2ac99a315686a032e8526c14c54d7d4007ebdccb4c017c904962",
      "transactionType": "CALL",
      "contractName": null,
      "contractAddress": "0x7b79995e5f793a07bc00c21412e50ecae098e7f9",
      "function": "approve(address,uint256)",
      "arguments": [
        "0xFf179e381516336C1b66B3Cda82Ca56996b8aB06",
        "500000000000000"
      ],
      "transaction": {
        "from": "0x64375e6121034c78803ca55b26269239363c5c30",
        "to": "0x7b79995e5f793a07bc00c21412e50ecae098e7f9",
        "gas": "0xf85d",
        "value": "0x0",
        "input": "0x095ea7b3000000000000000000000000ff179e381516336c1b66b3cda82ca56996b8ab060000000000000000000000000000000000000000000000000001c6bf52634000",
        "nonce": "0x123",
        "chainId": "0xaa36a7"
      },
      "additionalContracts": [],
      "isFixedGasLimit": false
    },
    {
      "hash": "0x7112e19b17be03ae0c8831e482060e4d2e0b88ddba5d7aebb5790a55e074ea96",
      "transactionType": "CALL",
      "contractName": null,
      "contractAddress": "0xff179e381516336c1b66b3cda82ca56996b8ab06",
      "function": "swap(address,uint256)",
      "arguments": [
        "0x7b79995e5f793A07Bc00c21412e50Ecae098E7f9",
        "500000000000000"
      ],
      "transaction": {
        "from": "0x64375e6121034c78803ca55b26269239363c5c30",
        "to": "0xff179e381516336c1b66b3cda82ca56996b8ab06",
        "gas": "0x17ea3",
        "value": "0x0",
        "input": "0xd004f0f70000000000000000000000007b79995e5f793a07bc00c21412e50ecae098e7f90000000000000000000000000000000000000000000000000001c6bf52634000",
        "nonce": "0x124",
        "chainId": "0xaa36a7"
      },
      "additionalContracts": [],
      "isFixedGasLimit": false
    }
  ],
  "receipts": [
    {
      "status": "0x1",
      "cumulativeGasUsed": "0xb939bc",
      "logs": [
        {
          "address": "0x7b79995e5f793a07bc00c21412e50ecae098e7f9",
          "topics": [
            "0x8c5be1e5ebec7d5bd14f71427d1e84f3dd0314c0f7b2291e5b200ac8c7c3b925",
            "0x00000000000000000000000064375e6121034c78803ca55b26269239363c5c30",
            "0x000000000000000000000000ff179e381516336c1b66b3cda82ca56996b8ab06"
          ],
          "data": "0x0000000000000000000000000000000000000000000000000001c6bf52634000",
          "blockHash": "0xc4a0ba09c050d6ea8b01ee518a54a8441bd76c336aac7a45231488fb0c9c5b77",
          "blockNumber": "0x6672e3",
          "transactionHash": "0x9c4a06fb3baf2ac99a315686a032e8526c14c54d7d4007ebdccb4c017c904962",
          "transactionIndex": "0x7b",
          "logIndex": "0x98",
          "removed": false
        }
      ],
      "logsBloom": "0x00000000002000000000000000000000000000000000000000000004000000000000000000000000000000000000000000000000000000000000000200200000000000000000000000000000000000000000000000000000000000000000000000000020000000000000000000000000000000000000000400000000000000000000000000000000000000000000000000000000000000000000000000000000020000000000000000004000000000080000000000000000000000000000000000000002000004000000000000000000000000000000000000000000000000000010000000000000000000000000000000000000000000000000000000000000",
      "type": "0x2",
      "transactionHash": "0x9c4a06fb3baf2ac99a315686a032e8526c14c54d7d4007ebdccb4c017c904962",
      "transactionIndex": "0x7b",
      "blockHash": "0xc4a0ba09c050d6ea8b01ee518a54a8441bd76c336aac7a45231488fb0c9c5b77",
      "blockNumber": "0x6672e3",
      "gasUsed": "0xb3d0",
      "effectiveGasPrice": "0x563fb8d40",
      "from": "0x64375e6121034c78803ca55b26269239363c5c30",
      "to": "0x7b79995e5f793a07bc00c21412e50ecae098e7f9",
      "contractAddress": null
    },
    {
      "status": "0x1",
      "cumulativeGasUsed": "0xba3f5e",
      "logs": [
        {
          "address": "0x7b79995e5f793a07bc00c21412e50ecae098e7f9",
          "topics": [
            "0xddf252ad1be2c89b69c2b068fc378daa952ba7f163c4a11628f55a4df523b3ef",
            "0x00000000000000000000000064375e6121034c78803ca55b26269239363c5c30",
            "0x000000000000000000000000ff179e381516336c1b66b3cda82ca56996b8ab06"
          ],
          "data": "0x0000000000000000000000000000000000000000000000000001c6bf52634000",
          "blockHash": "0xc4a0ba09c050d6ea8b01ee518a54a8441bd76c336aac7a45231488fb0c9c5b77",
          "blockNumber": "0x6672e3",
          "transactionHash": "0x7112e19b17be03ae0c8831e482060e4d2e0b88ddba5d7aebb5790a55e074ea96",
          "transactionIndex": "0x7c",
          "logIndex": "0x99",
          "removed": false
        },
        {
          "address": "0x779877a7b0d9e8603169ddbd7836e478b4624789",
          "topics": [
            "0xddf252ad1be2c89b69c2b068fc378daa952ba7f163c4a11628f55a4df523b3ef",
            "0x000000000000000000000000ff179e381516336c1b66b3cda82ca56996b8ab06",
            "0x00000000000000000000000064375e6121034c78803ca55b26269239363c5c30"
          ],
          "data": "0x00000000000000000000000000000000000000000000000000ec0e8863c2b0ef",
          "blockHash": "0xc4a0ba09c050d6ea8b01ee518a54a8441bd76c336aac7a45231488fb0c9c5b77",
          "blockNumber": "0x6672e3",
          "transactionHash": "0x7112e19b17be03ae0c8831e482060e4d2e0b88ddba5d7aebb5790a55e074ea96",
          "transactionIndex": "0x7c",
          "logIndex": "0x9a",
          "removed": false
        },
        {
          "address": "0xff179e381516336c1b66b3cda82ca56996b8ab06",
          "topics": [
            "0x77f92a1b6a1a11de8ca49515ad4c1fad45632dd3442167d74b90b304a3c7a758",
            "0x00000000000000000000000064375e6121034c78803ca55b26269239363c5c30"
          ],
          "data": "0x0000000000000000000000000000000000000000000000000001c6bf5263400000000000000000000000000000000000000000000000000000ec0e8863c2b0ef",
          "blockHash": "0xc4a0ba09c050d6ea8b01ee518a54a8441bd76c336aac7a45231488fb0c9c5b77",
          "blockNumber": "0x6672e3",
          "transactionHash": "0x7112e19b17be03ae0c8831e482060e4d2e0b88ddba5d7aebb5790a55e074ea96",
          "transactionIndex": "0x7c",
          "logIndex": "0x9b",
          "removed": false
        }
      ],
      "logsBloom": "0x00000004002000000000000000000000000000000000000000000004000010000000000000000000000000000000000000000000000000100002000200000000000000000000000000000008000000000000000000000000000000000000000000000020000000000000000000000000000000000000000400000010000000000200000000000000000000000000800000000000000000800000000000080000000000000000000000004000000000080000000000000000000000000000000000000002000004000000000000000000000000000000000100000000000000000000000000000000000000000000000000000000000000000000000000000000",
      "type": "0x2",
      "transactionHash": "0x7112e19b17be03ae0c8831e482060e4d2e0b88ddba5d7aebb5790a55e074ea96",
      "transactionIndex": "0x7c",
      "blockHash": "0xc4a0ba09c050d6ea8b01ee518a54a8441bd76c336aac7a45231488fb0c9c5b77",
      "blockNumber": "0x6672e3",
      "gasUsed": "0x105a2",
      "effectiveGasPrice": "0x563fb8d40",
      "from": "0x64375e6121034c78803ca55b26269239363c5c30",
      "to": "0xff179e381516336c1b66b3cda82ca56996b8ab06",
      "contractAddress": null
    }
  ],
  "libraries": [],
  "pending": [],
  "returns": {},
  "timestamp": 1726646541,
  "chain": 11155111,
  "commit": "62fa8c3"
}